:020000040000FA
:020000000000FE
:0E00020051018F1360308D00063093007F3067
:100010004F019600FF309700980099009A009B00CE
:040020008331622B9B
:0C00240046005000500030003200000088
:100030004400500049003200340048006100740060
:1000400000000000000000000000000000000000B0
:1000500000000000000000000000000000000000A0
:100060000000000031002E00300000000000000001
:1000700000000000000000003000300030003000C0
:1000800030003000300030003000300030003000F0
:100090003000300030000000370031003600000032
:1000A000000000003000000074006D0070002F00A0
:1000B00063006100700065002D0069006E0066003D
:1000C0006F002E006A0073006F006E0000000000D9
:1000D0000000000000000000000000000000000020
:1000E0000000000000000000000000000000000010
:1000F0000000000000000000000000000000000000
:1001000000000000000000000000000000000000EF
:1001100000000000000000000000000000000000DF
:1001200000000000000000007B000A002000220008
:100130006E0061006D00650022003A002000220080
:10014000440050004900320034004800610074004F
:1001500022002C000A00200022006C006F006E00BC
:1001600067004E0061006D00650022003A0020002B
:100170002200440050004900320034004800610071
:10018000740022002C000A0020002200640072008B
:10019000690076006500720022003A00200022000B
:1001A00044005000490050006900780065006C0070
:1001B000730022002C000A00200022006E0075004F
:1001C0006D00530065007200690061006C00220040
:1001D0003A00200030002C000A00200022006F00AE
:1001E00075007400700075007400730022003A00FE
:1001F00020005B000A00200020007B00200020007F
:100200002200700069006E0022003A0020002200E7
:10021000500031002D003800220020007D002C000D
:100220000A00200020007B00200020002200700037
:1002300069006E0022003A002000220050003100C8
:100240002D0031003600220020007D002C000A0025
:10025000200020007B0020002000220070006900A8
:100260006E0022003A0020002200500031002D00D4
:1002700031003200220020007D002C000A00200006
:1002800020007B00200020002200700069006E002A
:1002900022003A0020002200500031002D003100E1
:1002A0003000220020007D002C000A0020002000E9
:1002B0007B00200020002200700069006E002200F8
:1002C0003A0020002200500031002D0032003100A1
:1002D000220020007D002C000A00200020007B006E
:1002E000200020002200700069006E0022003A0009
:1002F00020002200500031002D0031003500220086
:1003000020007D002C000A00200020007B0020003F
:1003100020002200700069006E0022003A002000D8
:100320002200500031002D00310033002200200057
:100330007D002C000A00200020007B00200020000F
:100340002200700069006E0022003A0020002200A6
:10035000500031002D0031003100220020007D00CE
:100360002C000A0000000A00200020007B00200072
:1003700020002200700069006E0022003A00200078
:100380002200500031002D003300310022002000F7
:100390007D002C000A00200020007B0020002000AF
:1003A0002200700069006E0022003A002000220046
:1003B000500031002D003700220020007D002C006D
:1003C0000A00200020007B00200020002200700096
:1003D00069006E0022003A00200022005000310027
:1003E0002D0031003900220020007D002C000A0081
:1003F000200020007B002000200022007000690007
:100400006E0022003A0020002200500031002D0032
:1004100032003200220020007D002C000A00200063
:1004200020007B00200020002200700069006E0088
:1004300022003A0020002200500031002D0032003E
:100440003400220020007D002C000A002000200043
:100450007B00200020002200700069006E00220056
:100460003A0020002200500031002D0031003800F9
:10047000220020007D002C000A00200020007B00CC
:10048000200020002200700069006E0022003A0067
:1004900020002200500031002D00320036002200E2
:1004A00020007D002C000A00200020007B0020009E
:1004B00020002200700069006E0022003A00200037
:1004C0002200500031002D003200390022002000AF
:1004D0007D002C000A0000000A00200020007B00A4
:1004E000200020002200700069006E0022003A0007
:1004F00020002200500031002D0033003600220081
:1005000020007D002C000A00200020007B0020003D
:1005100020002200700069006E0022003A002000D6
:100520002200500031002D00340030002200200055
:100530007D002C000A00200020007B00200020000D
:100540002200700069006E0022003A0020002200A4
:10055000500031002D0033003700220020007D00C4
:100560002C000A00200020007B0020002000220038
:10057000700069006E0022003A0020002200500046
:1005800031002D0033003300220020007D002C00BC
:100590000A00200020007B002000200022007000C4
:1005A00069006E0022003A00200022005000310055
:1005B0002D0032003300220020007D002C000A00B4
:1005C000200020007B002000200022007000690035
:1005D0006E0022003A0020002200500031002D0061
:1005E00033003800220020007D002C000A0020008B
:1005F00020007B00200020002200700069006E00B7
:1006000022003A0020002200500031002D0033006B
:100610003500220020007D002C000A002000200070
:100620007B00200020002200700069006E00220084
:100630003A0020002200500031002D00330032002B
:10064000220020007D000A0020005D002C000A002E
:1006500020002200670072006F00750070007300B8
:1006600022003A0020005B000A00200020007B00EE
:100670000A002000200020002200730074006100A6
:100680007200740022003A00200031002C000A00A1
:10069000200020002000220063006F0075006E0023
:1006A000740022003A002000320034000A002000CA
:1006B00020007D000A0020005D000A007D000A0085
:0406C0003000000006
:0C06C4006C23C623632B7F016D08F1003E
:1006D00071087F01ED0008007F016D08F100053011
:0206E000ED0724
:0206E200872B64
:0C06E4004F01961317104B019E014F3080
:0E06F0009F009C01F3309D009E174E018C125E
:0206FE00842B4B
:080700008123822383230800FA
:020708008C1E45
:02070A00842B3E
:02070C000800E3
:02070E004F0199
:100710001A127D01C60116307E0190003810391082
:10072000400112147E01B810B91040019214430127
:1007300090008F01013091009201FE308E00503008
:100740008D008D354E010F1043019016123084003C
:10075000803085001200F20040011816722340011B
:1007600018127223400118167223400118120F301C
:060770008600073087003F
:02077600F62B60
:0407780083300502C3
:02077C00031D5B
:02077E00C22B8C
:0407800062300402DD
:02078400031858
:020786003F3101
:080788001200F2004301011010
:02079000011C4A
:02079200C82B72
:080794000C0872088C0010161D
:02079C008F1AB2
:02079E00BC2B72
:0207A0000F192F
:0207A200BC2B6E
:0407A40085000110BB
:0207A800011C32
:0207AA00D42B4E
:0407AC000C088C01A8
:0207B000101621
:0207B2008F1E98
:0207B400D02B48
:0607B6008400033005027F
:0207BC00031D1B
:0207BE00E22B2C
:0407C00050300402AF
:0207C400031C14
:0207C600E62B20
:0807C800840185011230840751
:0A07D0008030853D1200F200011098
:0207DA00011C00
:0207DC00ED2B03
:0207DE000C0805
:0607E00072088C001016E7
:0207E6008F1E64
:0207E800D02B14
:0207EA00EC2BF6
:0407EC0071087F0110
:0607F000ED0008006300AB
:020000040001F9
:02000E008C174D
:02001000FE2FC1
:020012009F3F0E
:02001400FF1FCC
:02001600FF3FAA
:00000001FF
