:020000040000FA
:020000000000FE
:0E00020051018F1360308D00063093007B306B
:100010004F019600F8309700FF30980099009A0041
:020020009B0043
:02002200F001EB
:0400240080314528BA
:080028004F0116117F016E0863
:1000300050019A007F016F0850019B00F0173F317B
:1000400050011E131E141D0EF03918001C0E0F391E
:1000500080041C0EF03918009A0F9B039B0A1E1493
:100060001D080F3980041C0818009A0F9B039B0A77
:020070009D1ED3
:02007200222842
:02007400F01F7B
:02007600080080
:080078001A087F01EE0050019F
:0A0080001B087F01EF00F0130800D9
:06008A00400118121212E1
:100090005220582049287F016D08F20078087F011E
:0E00A000ED0008007F016D08F2000330ED074F
:0200AE008B289D
:0200B000701BC3
:0200B2005C28C8
:0200B4004B20DF
:0A00B60058287013400118167B3023
:1000C000F6004F0196131711703045018E00FE3077
:1000D0008D0001309000A8308F008C0145018E17F3
:0400E0004E0190102D
:0200E400901872
:0200E600772879
:0400E8004B204E015A
:0400EC007228F60B75
:1000F0006E2840011812303045018E0032308D00DC
:0A0100008C0145018E174E0190108E
:02010A0090184B
:02010C008A283F
:02010E004B2084
:020110004E019E
:0401120085285828BC
:0A0116004F011A127D01C6011630D8
:100120007E01900038103910400112147E01B81081
:10013000B9104001921406304301900080308F00C6
:1001400091019201FE308E0050308D008D354E01B0
:100150000F104301901684012030850014201200F6
:1001600045037806AB09DE0C000F5A05550AA50AAF
:08017000AA258401203085005E
:08017800C620CF20BD287F0145
:100180006D08F80072087F01ED0008007F016D081E
:06019000F8000530ED0748
:020196000C2932
:08019800F01243011016BF2014
:0201A0004E010E
:0201A2000F1C30
:0201A400C2286F
:0A01A6000F1043010C08F70070175A
:0201B0000F1925
:0201B200F9282A
:0201B4008F1AA0
:0201B600DE2841
:0401B800F016CD2848
:0201BC00F01A37
:0201BE00EE2829
:0801C00077081A002030050247
:0201C800031D15
:0201CA00E82823
:0401CC0010300402E9
:0201D000031C0E
:0201D200CC2837
:0C01D400840120308500CC2884018500C7
:0401E0001030770262
:0201E4000318FE
:0201E600F7011F
:0401E8007708840709
:0201EC000318F6
:0201EE00850A80
:0201F000CC2819
:0201F2008F1E5E
:0201F400FE28E3
:0201F600111FD7
:0201F800FE28DF
:0601FA00CD2812008C006C
:0402000020300502A3
:02020400031DD8
:020206000629C7
:0402080010300402AC
:02020C00031CD1
:02020E00CD28F9
:08021000840120308500CD2897
:0802180072087F01ED000800EF
:02022000630079
:020000040001F9
:02000E008C174D
:02001000FE2FC1
:020012009F3F0E
:02001400FF1FCC
:02001600FF3FAA
:00000001FF
