:020000040000FA
:020000000000FE
:0E00020051018F1360308D00063093007F3067
:100010004F019600FF309700980099009A009B00CE
:040020008431E92C12
:0C0024005023302800195022B224481A42
:10003000F43020002010201020102010201020105C
:1000400020102010AE18001820102010201030189A
:100050003018301830183018301830180018B1190E
:100060000018201000186D3A2F38E1316538E91674
:100070006637AE377335EE37200020102010201081
:1000800020102010201020102010201020102010F0
:1000900020102010201020102010201020102010E0
:1000A0002010201020108A3D2210E4343A11221032
:1000B0005022B224481AF4307614AE1829182C11A4
:1000C0000A102210653B7339EF342237201D31119D
:1000D00030172C110A1022106137E5363A11221020
:1000E0005022B224481AF4302C110A102210653222
:1000F0006133EC3A533AF432693A6737A239201D3A
:100100008A3D7D100A1622107238F637E434F33235
:100110003A115B102210F43969396737A2395D1042
:100120000A1622106532E939EE33F2323A11221002
:100130006A32EC3AE53422370A162210EF31793868
:1001400069236536A239201D8A3D20107411F036CE
:10015000E317AD376938653C5336723AEE34F33302
:100160006A17EF392237201D7411F036E417E63292
:10017000F5307436AF39EF316637E734E317AD3712
:100180006938653C5336723AEE34F3336A17EF3907
:1001900022370A1620107411F036C4174928341972
:1001A00061242E3A7335EE373A112210EF17743866
:1001B000E6177038E317F030F332F017AF34F43944
:1001C00069396737AF395022B224481AF4306A17B8
:1001D000EF3922370A107D100A108A3E351B001AAB
:1001E000201000186D3A2F385022B224481AF430EB
:1001F0006A17EF390037201020102010201020102F
:10020000201020102010201020102010201020106E
:10021000201020102010201020102010201020105E
:10022000201020108A3D22106137E5363A11221045
:100230005022B224481AF4302C110A1022106F36C2
:1002400067376127E5363A1122105022B224481A46
:10025000F4302C110A1022107232F634F2323A11B4
:1002600022105022D024F834EC32A2390A1622107F
:100270007537D336F232E1342236201D2C180A109D
:100280002210F537703AF43AA239201D8A2D201039
:10029000A23D69382237201D5011AD18221CAC3EFA
:1002A0000A102010A23D69382237201D5011AD18C8
:1002B000B6187D110A162010A23D69382237201D7C
:1002C0005011AD18B2187D110A162010A23D6938E0
:1002D0002237201D5011AD18B0187D110A162010BC
:1002E000A23D69382237201D5011AD1831197D11FA
:1002F0000A162010A23D69382237201D5011AD1872
:10030000B5187D110A162010A23D69382237201D2C
:100310005011AD18B3187D110A162010A23D69388E
:100320002237201D5011AD18B1187D110A160A1080
:100330002010A23D69382237201D5011AD18B11987
:100340007D110A162010A23D69382237201D501158
:10035000AD18A21BAC3E0A102010A23D693822370E
:10036000201D5011AD18B9187D110A162010A23D9C
:1003700069382237201D5011AD1832197D110A1627
:100380002010A23D69382237201D5011AD183419B4
:100390007D110A162010A23D69382237201D501108
:1003A000AD18B8187D110A162010A23D6938223701
:1003B000201D5011AD1836197D110A162010A23DCE
:1003C00069382237201D5011AD1839197D110A16D0
:1003D0000A102010A23D69382237201D5011AD1897
:1003E000B6197D110A162010A23D69382237201D4A
:1003F0005011AD18301A7D110A162010A23D69382F
:100400002237201D5011AD18B7197D110A16201082
:10041000A23D69382237201D5011AD18B3197D1146
:100420000A162010A23D69382237201D5011AD1840
:1004300033197D110A162010A23D69382237201D7C
:100440005011AD18B8197D110A162010A23D693857
:100450002237201D5011AD18B5197D110A16201034
:10046000A23D69382237201D5011AD18B2197D11F7
:100470000A105D100A162210F233F53773383A115C
:100480005B100A1020108A3D20102210F439F2303F
:10049000223A201DAC180A1020102210EF31EE3A3B
:1004A000223A201D34190A1020108A3E5D107D105A
:1004B0000A05B218B419200000186D3A2F38EF3130
:1004C000F016F834EC32F42969396737AE397335F0
:1004D000EE372000201020102010201020102010B7
:1004E000201020102010201020102010201020108C
:1004F000201020102010201020108A3D2210E831FA
:10050000EE3065374F36F43A7538733A3A115B106E
:100510000A107B100A1020107411F03CA232201D2A
:10052000441149286928653C73362C110A102010A3
:100530007311E23A792A65383A1122105022B22416
:10054000481AF4302C110A1020107011EE34F537CF
:10055000563AF232E939EE373A112210AE18221823
:100560000A1620106F11F43A7538733A3A115B107D
:100570000A102010A03D7011F2374E3AED3A653165
:100580002239201D2C1822107238F437E337EC374B
:100590003A112210F33B3819B1182011AC3E0A1061
:1005A0002010A03D7011F2374E3AED3A65312239F4
:1005B000201DAC1822107238F437E337EC373A11AB
:1005C0002210F33B3819B1182011AC3E0A1020104C
:1005D000A03D7011F2374E3AED3A65312239201DB7
:1005E0002C1922107238F437E337EC373A11221005
:1005F000F33B3819B1182011AC3E0A102010A03D71
:100600007011F2374E3AED3A65312239201DAC199E
:1006100022107238F437E337EC373A112210F33BEB
:100620003819B1182011AC3E0A102010A03D7011ED
:10063000F2374E3AED3A65312239201D2C1A22103C
:100640007238F437E337EC373A112210F33B38199C
:10065000B1182011AC3E0A102010A03D7011F237E5
:100660004E3AED3A65312239201DAC1A221072380B
:10067000F437E337EC373A112210F33B3819B1184D
:100680002011AC3E0A102010A03D7011F2374E3AF6
:10069000ED3A65312239201D2C1B22107238F437B7
:1006A000E337EC373A112210F33B3819B118201117
:1006B000AC3E0A102010A03D7011F2374E3AED3AD0
:1006C00065312239201DAC1B22107238F437E33714
:1006D000EC373A112210F33B3819B1182011AC3E17
:1006E0000A102010A03D7011F2374E3AED3A6531F4
:1006F0002239201D2C1C22107238F437E337EC37D6
:100700003A112210F33B3819B1182011AC3E0A10EF
:100710002010A03D7011F2374E3AED3A6531223982
:10072000201DAC1C22107238F437E337EC373A1135
:100730002210F33B3819B1182011AC3E0A102010DA
:10074000A03D7011F2374E3AED3A65312239201D45
:10075000B018201670116F396F3AEF312236201D14
:100760007711B239311CA2187D100A162010A03D55
:100770007011F2374E3AED3A65312239201DB11829
:10078000201670116F396F3AEF312236201D771124
:10079000B239311CA2187D100A162010A03D70112C
:1007A000F2374E3AED3A65312239201DB218201643
:1007B00070116F396F3AEF312236201D7711B2393F
:1007C000311CA2187D100A162010A03D7011F237BE
:1007D0004E3AED3A65312239201DB31820167011BA
:1007E0006F396F3AEF312236201D7711B239311C43
:1007F000A2187D100A162010A03D7011F2374E3A53
:10080000ED3A65312239201DB418201670116F3968
:100810006F3AEF312236201D7711B239311CA21800
:100820007D100A162010A03D7011F2374E3AED3AB5
:1008300065312239201DB518201670116F396F3AB5
:10084000EF312236201D7711B239311CA2187D10EC
:100850000A162010A03D7011F2374E3AED3A65317C
:100860002239201DB618201670116F396F3AEF31FA
:100870002236201D7711B239311CA2187D100A16BC
:100880002010A03D7011F2374E3AED3A6531223911
:10089000201DB718201670116F396F3AEF312236CC
:1008A000201D7711B239311CA2187D100A162010B4
:1008B000A03D7011F2374E3AED3A65312239201DD4
:1008C000B818201670116F396F3AEF312236201D9B
:1008D0007711B239311CA2187D100A162010A03DE4
:1008E0007011F2374E3AED3A65312239201DB918B0
:1008F000201670116F396F3AEF312236201D7711B3
:10090000B239311CA2187D100A162010A03D7011BA
:10091000F2374E3AED3A65312239201D3019201652
:1009200070116F396F3AEF312236201D7711B239CD
:10093000311CA2187D100A162010A03D7011F2374C
:100940004E3AED3A65312239201D311920167011C9
:100950006F396F3AEF312236201D7711B239311CD1
:10096000A2187D100A162010A03D7011F2374E3AE1
:10097000ED3A65312239201D3219201670116F3978
:100980006F3AEF312236201D7711B239311CA2188F
:100990007D100A162010A03D7011F2374E3AED3A44
:1009A00065312239201D3319201670116F396F3AC5
:1009B000EF312236201D7711B239311CA2187D107B
:1009C0000A105D107D100A10A02E8A3E001820101B
:0209D0002010F5
:0E09D200F324F924EA2C7F016D08F10071086E
:1009E0007F01ED0008007F016D08F1000530ED0783
:0209F0006C2D6C
:0E09F2004F011A127D01C60116307E019000E1
:100A000038103910400112147E01B810B91040019D
:100A100092144301900080308F00013091009201C8
:100A2000FE308E0050308D008D354E010F10430189
:100A300090164F01161150011E130F30860007301B
:0A0A40008700F201F3014D250110BB
:020A4A00011C8D
:020A4C00252D56
:020A4E000C0694
:060A50008C060C061016D6
:020A56008F1AF5
:020A5800232D4C
:020A5A000F1972
:020A5C00232D48
:020A5E00003066
:020A6000011083
:020A6200011C75
:020A6400312D32
:080A66000C068C060C061016AC
:020A6E008F1ED9
:020A70002F2D28
:080A7200F200F3014D25011013
:020A7A00011C5D
:020A7C003D2D0E
:020A7E000C0664
:060A80008C060C061016A6
:020A86008F1EC1
:020A88002F2D10
:060A8A00F20BF30AF30376
:0E0A90007206F2067206F300232D093073027F
:020A9E00031D36
:020AA000532DD4
:040AA200AE307202FE
:020AA600031833
:020AA800003418
:060AAA00733650019B00B1
:100AB000720C9A00F20FF303F30A12309A07003017
:040AC0009B3D1E1428
:020AC400721CA2
:020AC600682D99
:080AC8001C0D1D0D4301080087
:080AD0001C087F3943010800F6
:080AD80071087F01ED00080028
:020AE0006300B1
:020000040001F9
:02000E008C174D
:02001000FE2FC1
:020012009F3F0E
:02001400FF3FAC
:02001600FF3FAA
:00000001FF
