:020000040000FA
:020000000000FE
:0E0002007E01B8010830B9004001980192005B
:1000100051018F1360308D00063093007B304F010B
:100020009600F8309700FF30980099009A009B00E6
:0E0030008031232029201F287F016D08F10058
:02003E00710847
:040040007F01ED004F
:0C00440008007F016D08F1000530ED0799
:02005000832902
:0600520000304001181609
:02005800891FFE
:02005A0018127A
:04005C008935893524
:02006000181274
:08006200F000063AF0067006FA
:02006A00181666
:02006C00031C73
:02006E00181266
:020070003D2829
:080072003A203B203C2008006D
:02007A0018125A
:04007C008935F00BC7
:04008000352800001F
:0200840018164C
:02008600031C59
:0200880018124C
:04008A000230000040
:02008E00181246
:020090003C2012
:0200920018163E
:02009400891FC2
:0200960018123E
:0400980089358935E8
:02009C00181238
:02009E00F00070
:0600A000063AF0067006AE
:0200A60018162A
:0200A800031C37
:0200AA0018122A
:0400AC0057281812A7
:0800B0008935F00B5328000014
:0200B800181618
:0200BA00031C25
:0200BC00181218
:0200BE006028B8
:0200C200181212
:0200C4003C20DE
:0200C60018160A
:0200C800891F8E
:0200CA0018120A
:0400CC0089358935B4
:0200D000181204
:0800D200F000063AF00670068A
:0200DA001816F6
:0200DC00031C03
:0200DE001812F6
:0400E0007128181259
:0800E4008935F00B6D280000C6
:0200EC001816E4
:0200EE00031CF1
:0200F0001812E4
:0400F2007A2818123E
:0A00F6003C204B019E014F309F009B
:0E0100009C01F3309D009E174E018C12872843
:02010E008C1E45
:0201100087283E
:020112008C124D
:0601140002304001181644
:02011A00891F3B
:02011C001812B7
:02011E00893521
:0201200089351F
:020122001812B1
:08012400F000063AF006700637
:02012C001816A3
:02012E00031CB0
:020130001812A3
:040132009A281812DD
:080136008935F00B962800004A
:02013E00181691
:02014000031C9E
:02014200181291
:040144000030000087
:0201480018128B
:02014A003C2057
:02014C00181683
:02014E00891F07
:02015000181283
:04015200893589352D
:0201560018127D
:08015800F000063AF006700603
:0201600018166F
:02016200031C7C
:0201640018126F
:04016600B42818128F
:06016A008935F00BB028FE
:0201700000008D
:0201720018165D
:02017400031C6A
:0201760018125D
:040178000030000053
:02017C00181257
:02017E003C2023
:0201800018164F
:02018200891FD3
:0201840018124F
:0401860089358935F9
:02018A00181249
:04018C00F000063A3F
:04019000F0067006FF
:0201940018163B
:02019600031C48
:0201980018123B
:04019A00CE28181241
:02019E008935A1
:0601A000F00BCA2800006C
:0201A600181629
:0201A800031C36
:0201AA00181229
:0401AC00D728181226
:0201B0003C20F1
:0201B2004E01FC
:0201B4008C1E9F
:0201B600DA2845
:0201B8008C12A7
:0601BA00003040011816A0
:0201C000891F95
:0201C200181211
:0401C40089358935BB
:0201C80018120B
:0601CA00F000063AF00609
:0201D0007006B7
:0201D2001816FD
:0201D400031C0A
:0201D6001812FD
:0401D800ED281812E4
:0401DC008935F00B66
:0401E000E92800000A
:0201E4001816EB
:0201E600031CF8
:0201E8001812EB
:0201EA00F628F5
:0201EE001812E5
:0201F0003C20B1
:0201F2001816DD
:0201F400891F61
:0201F6001812DD
:0401F8008935893587
:0201FC001812D7
:0201FE00F0000F
:06020000063AF00670064C
:020206001816C8
:02020800031CD5
:02020A001812C8
:04020C000729181294
:080210008935F00B0329000001
:020218001816B6
:02021A00031CC3
:02021C001812B6
:02021E000230AC
:020220000000DC
:020222001812B0
:020224003C207C
:020226001816A8
:02022800891F2C
:02022A001812A8
:04022C008935893552
:020230001812A2
:08023200F000063AF006700628
:02023A00181694
:02023C00031CA1
:02023E00181294
:040240002129181246
:080244008935F00B1D290000B3
:02024C00181682
:02024E00031C8F
:02025000181282
:040252002A2918122B
:020256003C204A
:020258004E0155
:02025A008C1EF8
:02025C002D294A
:02025E008C1200
:04026000400118162B
:02026400891FF0
:0202660018126C
:040268008935893516
:02026C00181266
:02026E00F0009E
:06027000063AF0067006DC
:02027600181658
:02027800031C65
:02027A00181258
:04027C003F291812EC
:080280008935F00B3B29000059
:02028800181646
:02028A00031C53
:02028C00181246
:02028E004829FD
:02029200181240
:020294003C200C
:02029600181638
:02029800891FBC
:02029A00181238
:04029C0089358935E2
:0202A000181232
:0802A200F000063AF0067006B8
:0202AA00181624
:0202AC00031C31
:0202AE00181224
:0402B000592918129E
:0802B4008935F00B552900000B
:0202BC00181612
:0202BE00031C1F
:0202C000181212
:0202C2006229AF
:0202C60018120C
:0202C8003C20D8
:0202CA00181604
:0202CC00891F88
:0202CE00181204
:0402D00089358935AE
:0202D4001812FE
:0802D600F000063AF006700684
:0202DE001816F0
:0202E000031CFD
:0202E2001812F0
:0402E4007329181250
:0802E8008935F00B6F290000BD
:0202F0001816DE
:0202F200031CEB
:0202F4001812DE
:0402F6007C29181235
:0202FA003C20A6
:0202FC004E01B1
:0202FE008C1E54
:020300007F2953
:040302008C12292808
:0803060071087F01ED00080001
:02030E0063008A
:020000040001F9
:02000E008C174D
:02001000FE2FC1
:020012009F3F0E
:02001400FF1FCC
:02001600FF3FAA
:00000001FF
